:020000040800F2
:100000000000052491390008E5360008ED360008A7
:10001000F5360008FD36000805370008000000002E
:100020000000000000000000000000000D37000884
:100030001B37000800000000293700083737000888
:10004000E1390008E1390008E1390008E139000828
:10005000E1390008E1390008E1390008E139000818
:10006000E1390008E1390008E1390008E139000808
:10007000E13900084537000859370008E139000820
:10008000E1390008E1390008E1390008E1390008E8
:10009000E1390008E1390008E1390008E1390008D8
:1000A000E1390008E1390008E1390008E1390008C8
:1000B000E1390008E1390008E1390008E1390008B8
:1000C000E1390008E1390008E13900086D3700081E
:1000D000E13900088137000895370008A937000882
:1000E000E1390008E139000800000000E1390008AA
:1000F000E1390008E1390008E1390008E139000878
:10010000E1390008E1390008E1390008E139000867
:10011000BD370008D1370008E1390008E13900088F
:10012000E1390008E5370008E1390008F93700082F
:10013000E1390008E1390008E1390008E139000837
:1001400000000000000000000000000000000000AF
:10015000E1390008E1390008E1390008E139000817
:10016000E1390008E1390008E1390008E139000807
:10017000E1390008E1390008E13900080000000019
:10018000E1390008E13900080D380008E1390008BC
:1001900021380008E1390008E1390008E139000898
:1001A000E1390008E1390008E139000800000000E9
:1001B000E1390008E1390008E1390008E1390008B7
:1001C000E1390008E13900080000000000000000EB
:1001D0000000000000000000E139000800000000FD
:1001E000000000000000000000000000000000000F
:1001F0000000000000000000E1390008E1390008BB
:10020000E1390008E139000800000000E139000888
:10021000E1390008E1390008E1390008E139000856
:10022000E139000800000000E1390008000000008A
:10023000E1390008E139000800000000E139000858
:10024000E1390008E1390008E1390008E139000826
:10025000E1390008E1390008E1390008E139000816
:10026000E1390008E1390008E1390008E139000806
:10027000E1390008E1390008E13900080000000018
:10028000E1390008E1390008E1390008E1390008E6
:1002900000000000E1390008E1390008000000001A
:1002A00000000000E1390008E1390008E1390008E8
:1002B000E1390008E1390008E1390008E1390008B6
:0C02C000E1390008E1390008E1390008CC
:1002D00010B5054C237833B9044B13B10448AFF380
:1002E00000800123237010BD2001002400000000C5
:1002F0004411010808B5034B1BB103490348AFF390
:10030000008008BD00000000240100244411010801
:10031000034613F8012B002AFBD1181A0138704745
:1003200001F0FF01102A2BDB10F0070F08D010F8A6
:10033000013B013A8B422DD010F0070F42B3F6D1AA
:10034000F0B441EA012141EA014122F007047FF0C3
:1003500000070023F0E80256083C85EA010586EA1A
:10036000010685FA47F5A3FA87F586FA47F6A5FA56
:1003700087F68EB9EED1F0BC01F0FF0102F0070262
:1003800032B110F8013B013A83EA010313B1F8D10D
:100390000020704701387047002D06BF35460338EE
:1003A000073815F0010F07D1013015F4807F02BF27
:1003B000013015F4C03F0130F0BC0138704700BF78
:1003C00053B94AB9002908BF00281CBF4FF0FF31BC
:1003D0004FF0FF3000F06AB9ADF1080C6DE904CEC2
:1003E00000F006F8DDF804E0DDE9022304B0704710
:1003F0002DE9F047089D0C46002B4ED194468C45C4
:100400008646B2FA82F262D94AB1C2F12003914023
:1004100020FA03F30CFA02FC194300FA02FE4FEA39
:100420001C471FFA8CF6B1FBF7F44FEA1E4307FB9B
:10043000141143EA014304FB06F199420AD91CEB6B
:10044000030304F1FF3080F01281994240F20F81E2
:10045000023C6344591A1FFA8EF3B1FBF7F007FB15
:10046000101143EA014300FB06F69E420AD91CEB39
:10047000030300F1FF3180F0FC809E4240F2F980DE
:10048000634402389B1B40EA044000211DB1D34065
:100490000022C5E90032BDE8F0878B4205D90DB1D5
:1004A000C5E9000100210846F5E7B3FA83F1002908
:1004B00046D1A34202D39042C0F0F080861A64EB8A
:1004C00003030120002DE6D0C5E90063E3E7002A1D
:1004D00040F09080A1EB0C044FEA1C481FFA8CF707
:1004E0000121B4FBF8F64FEA1E4308FB164443EA29
:1004F000044307FB06F0984208D91CEB030306F1FE
:10050000FF3402D2984200F2CD8026461C1A1FFA10
:100510008EF3B4FBF8F008FB104443EA044300FBFD
:1005200007F79F4208D91CEB030300F1FF3402D206
:100530009F4200F2B0802046DB1B40EA0640A5E760
:10054000C1F120068B4022FA06F71F4320FA06FC71
:1005500004FA01F343EA0C03F44000FA01F8380C02
:100560004FEA1349B4FBF0FE1FFA87FC00FB1E4460
:1005700049EA04440EFB0CF9A14502FA01F20AD93A
:100580003C190EF1FF3A80F08480A14540F2818051
:10059000AEF1020E3C44A4EB09041FFA83F9B4FB4C
:1005A000F0F300FB134449EA044403FB0CFCA445AC
:1005B00007D93C1903F1FF3067D2A44565D9023B46
:1005C0003C4443EA0E40A0FB0293A4EB0C049C4283
:1005D000CE469C4651D34ED055B1B8EB0E0364EBDA
:1005E0000C0404FA06F6CB401E43CC40C5E9006477
:1005F000002150E7C2F1200320FA03F10CFA02FCBB
:1006000024FA03F394400C434FEA1C4800FA02FE1C
:100610001FFA8CF7B3FBF8F008FB1031230C43EA08
:10062000014300FB07F1994208D91CEB030300F1D9
:10063000FF362CD299422AD9023863445B1AA4B2FD
:10064000B3FBF8F108FB113344EA034401FB07F361
:10065000A34208D91CEB040401F1FF3613D2A342D4
:1006600011D902396444E41A41EA004139E70446E9
:10067000F0E6084606E7C845AED2B9EB020E63EBDA
:10068000070C0138A8E73146EDE7034699E7304605
:10069000D4E7D6467FE7634402384DE70646234653
:1006A00008460FE7023E634430E700BF704700BFD3
:1006B00080B582B000AF7860786803F025FA00BF9B
:1006C0000837BD4680BD000080B500AF0022012183
:1006D000024808F0D7FA00BF80BD00BF00040258EE
:1006E00080B500AF01220121024808F0CBFA00BF1B
:1006F00080BD00BF0004025880B582B000AF7860B2
:100700000B46FB70FB789AB24FF4FA6379680348A2
:100710000BF044FD00BF0837BD4680BDBC0300247C
:1007200080B582B000AF786039603B689AB241F220
:100730008833796803480BF023FF00BF0837BD46B4
:1007400080BD00BFBC03002480B582B000AF9F23F2
:100750003B71FFF7B9FF3B1D01211846FFF7CCFFA6
:100760003B4603211846FFF7DBFFFFF7B9FF3B7855
:100770001A047B781B021343BA78134318460837D0
:10078000BD4680BD80B582B000AF66233B71992322
:100790007B71FFF799FF391D0223002205480CF0F9
:1007A000CDFBFFF79DFF6420FFF782FF00BF0837F6
:1007B000BD4680BDBC03002480B582B000AF9F233E
:1007C000FB71FFF781FF3A1DF91D01230A480CF068
:1007D000B5FB0346002B02D1084800F011F8FFF7E3
:1007E0007FFFBB791A047B791B0213433A791343C9
:1007F00018460837BD4680BDBC0300245C110108C3
:100800000FB480B582B000AF07F114037B607B6842
:100810003A694FF480710A4810F006F80848FFF76B
:1008200077FD03469AB24FF0FF33054905480EF0B5
:10083000CBF800BF0837BD46BDE8804004B0704724
:100840003C010024140A002480B584B000AF0346A4
:10085000FB710723FB600CE0FA79FB6842FA03F3B3
:1008600003F0010319460748FFF7CAFFFB68013B85
:10087000FB60FB68002BEFDA00BF00BF1037BD46FE
:1008800080BD00BF68110108B0B586B004AF7860C4
:100890007B681B7818467B685B781C467B689B7876
:1008A0001D467B68DB781A467B681B7919467B6896
:1008B0005B790293019100922B4622460146034840
:1008C000FFF79EFF00BF0837BD46B0BD10120108FC
:1008D00080B500AF00221021024808F0D3F900BF14
:1008E00080BD00BF0010025880B500AF012210216A
:1008F000024808F0C7F900BF80BD00BF00100258D1
:1009000080B582B000AF78600B46FB70FB789AB27E
:100910004FF4FA63796803480BF040FC00BF0837D6
:10092000BD4680BD4404002480B582B000AF78602D
:1009300039603B689AB241F28833796803480BF01A
:100940001FFE00BF0837BD4680BD00BF4404002421
:1009500080B582B000AF03233B7100237B7100237D
:100960003B70FFF7B5FF3B1D02211846FFF7C8FF9C
:100970003B4601211846FFF7D7FFFFF7B5FF3B784D
:1009800018460837BD4680BD80B500AF144B032222
:100990001A70134B00225A70FFF79AFF02230022AD
:1009A0000F4910480CF0CAFA0346002B02D10E483A
:1009B000FFF726FF4FF4FA7003F0A6F801230B4A65
:1009C000002108480CF0BAFA0346002B02D108486F
:1009D000FFF716FFFFF788FF044B1B78184680BD12
:1009E0003C020024440400246C120108400200244C
:1009F0007812010880B582B000AF3948FFF700FFD8
:100A0000002000F035FB03467B717B79882BF7D102
:100A1000032000F02DFB03467B717B7943F04003FC
:100A20007B717B791946032000F006FB0123FB71E3
:100A300007E0FB790521184600F092F9FB790133B4
:100A4000FB71FB79022BF4D9002000F099FB022006
:100A500000F0B2F8002000F047F8012000F063F841
:100A60000123BB7131E0BB79184600F0B1FBBB79C3
:100A7000184600F0D4FBBB791A49184600F0F6FB83
:100A8000BB790121184600F02BFCBB79184600F019
:100A900059FCBB790121184600F097FCBB79012174
:100AA000184600F0C4FCBB790121184600F0F1FCA7
:100AB000BB790121184600F01EFDBB7901211846C3
:100AC00000F04BFDBB790133BB71BB79022BCAD956
:100AD00000F048F8002318460837BD4680BD00BF27
:100AE0008412010800E1F50580B584B000AF03462B
:100AF000FB71032000F0BCFA0346FB73FB79002B6B
:100B000004D0FB7B63F07F03FB7303E0FB7B03F00C
:100B10007F03FB73FB7B1946032000F08DFA00BFB7
:100B20001037BD4680BD80B584B000AF0346FB7171
:100B3000032000F09DFA0346FB73FB79002B04D0E1
:100B4000FB7B43F00403FB7303E0FB7B23F0040314
:100B5000FB73FB7B1946032000F06EFA00BF1037D1
:100B6000BD4680BD80B582B000AF012000F080FAA4
:100B70000346FB71FB791846FFF766FE0C48FFF74A
:100B80003FFEFB7943F00103FB71FB79194601201D
:100B900000F052FAFB791846FFF756FE0448FFF7BB
:100BA0002FFE0448FFF72CFE00BF0837BD4680BD6E
:100BB000A0120108A412010880B584B000AF03465A
:100BC000FB710B2000F054FA0346FB73FB7B03F030
:100BD0003F03FB73FB799B015AB297F90F30134324
:100BE0005BB2FB73FB7B19460B2000F025FA00BFBC
:100BF0001037BD4680BD000080B584B000AF03460D
:100C0000FB71FB79002B16D0FB79022B13D8FB79F3
:100C10001B01DBB20E33DBB2184600F029FA0346A3
:100C2000BB81BB895B1103F00103002B14BF0123BF
:100C30000023FB7301E00023FB73FB79FA7B194669
:100C40000348FFF7DDFDFB7B18461037BD4680BD2E
:100C5000B412010880B584B000AF0346FB71FB7984
:100C6000002B17D0FB79022B14D8FB791B01DBB2C8
:100C70000F33DBB2184600F0FBF903467B817B891A
:100C800003F00403002B02D0114BFB6017E0114B63
:100C9000FB6014E0FB79032B0FD1062000F0E8F98C
:100CA00003467B817B8903F01003002B02D0094BA4
:100CB000FB6004E0064BFB6001E00023FB60F96889
:100CC0000548FFF79DFDFB6818461037BD4680BDFF
:100CD00000E1F50580969800D012010880B584B037
:100CE00000AF0346FB71FB79002B17D0FB79022B79
:100CF00014D8FB791B01DBB20F33DBB2184600F0CE
:100D0000B7F90346BB81BB8903F00203002B02D075
:100D10000223FB7317E00123FB7314E0FB79032B21
:100D20000FD1062000F0A4F90346BB81BB8903F074
:100D30004003002B02D00123FB7304E00223FB736A
:100D400001E00023FB73FB79FA7B19460348FFF7A8
:100D500057FDFB7B18461037BD4680BDE0120108E9
:100D600080B584B000AF03460A46FB711346BB71E1
:100D7000FB79002B54D0FB79022B51D8FB791B0156
:100D8000DBB20233DBB2184600F072F90346FB73A4
:100D9000BB79052B20D0052B2BDC032B02D0042B99
:100DA0000DD026E0FB7B23F00403FB73FB7B43F0B9
:100DB0000203FB73FB7B43F00103FB7326E0FB7B29
:100DC00023F00403FB73FB7B23F00203FB73FB7B29
:100DD00023F00103FB7319E0FB7B43F00403FB7377
:100DE000FB7B43F00203FB73FB7B23F00103FB73EC
:100DF0000CE0FB7B23F00403FB73FB7B23F002037B
:100E0000FB73FB7B43F00103FB7300BFFB791B010A
:100E1000DBB20233DBB2FA7B1146184600F00CF964
:100E200000BF1037BD4680BD80B584B000AF03461B
:100E3000FB71FB79002B58D0FB79022B55D8FB793D
:100E40001B01DBB20233DBB2184600F011F9034696
:100E5000BB73BB7B03F00403002B0CD1BB7B03F003
:100E60000203002B07D1BB7B03F00103002B02D050
:100E70000123FB7338E0BB7B03F00403002B0CD190
:100E8000BB7B03F00203002B07D0BB7B03F0010305
:100E9000002B02D00323FB7326E0BB7B03F004038B
:100EA000002B0CD1BB7B03F00203002B07D1BB7BD3
:100EB00003F00103002B02D10423FB7314E0BB7B7E
:100EC00003F00403002B0CD0BB7B03F00203002BC8
:100ED00007D0BB7B03F00103002B02D10523FB737A
:100EE00002E00023FB7302E001E00123FB73FB79C6
:100EF000FA7B19460348FFF783FCFB7B1846103743
:100F0000BD4680BDFC12010890B589B000AF034614
:100F10003960FB80FB88B3F5806F7BD2FB88184675
:100F200000F044FA03465BB203F003035BB243F004
:100F300018035BB2DBB21946792000F07DF8FB881C
:100F4000184600F026FA034619467A2000F074F895
:100F500007F108037B610023BB830EE0BB8BDBB290
:100F60007B33D9B2BB8B7A69D418084600F080F87D
:100F700003462370BB8B0133BB83BB8B092BEDD99D
:100F80003B7A23F07F03DBB2002BC7D13B7A03F01F
:100F90000403DBB2002B12D13B7AC3F30103DBB2B3
:100FA0001B021AB27B7A1BB213431BB29BB20133F2
:100FB0007B837B8B19461C48FFF722FC04E01B480F
:100FC000FFF71EFC00237B83FA887B8B9A421BD29F
:100FD0003B6807F10C0292E80300186004331980A3
:100FE000BB7AC3F30113DBB20133DAB23B689A7107
:100FF0003B6800229A603B6800221A730C48FFF796
:10100000FFFB0023FB770AE00A48FFF7F9FB022306
:10101000FB7704E00748FFF7F3FB0223FB77FB7F36
:1010200018462437BD4690BD5814010884140108A1
:10103000A4140108C814010880B584B000AF0346A9
:101040000A46FB711346BB7102233B73FB797B732A
:10105000BB79BB73FFF73CFC07F10C030321184677
:10106000FFF74EFCFFF740FC00BF1037BD4680BDC8
:1010700080B584B000AF0346FB71FFF729FC032362
:101080003B73FB797B7307F10C0302211846FFF7D2
:1010900037FC07F1080301211846FFF745FCFFF76D
:1010A00023FC3B7A18461037BD4680BD80B582B020
:1010B00000AF0023FB8016E0FB88DBB21846FFF789
:1010C000D7FF03467B71FB887A7919460B48FFF7F7
:1010D00097FB7B791846FFF7B7FB0948FFF790FBB2
:1010E000FB880133FB80FB88FF2BE5D90448FFF721
:1010F00087FB00BF0837BD4680BD00BFF014010864
:101100000815010880B586B000AF786000237B61C8
:1011100011E07B69DBB27033DBB21846FFF7A8FF42
:101120000346194607F10C027B6913440A461A70FC
:101130007B6901337B617B69052BEADD07F10C03D9
:101140001846FFF7A1FB7B681A4607F10C031868E5
:1011500010609B88938078681837BD4680BD80B545
:1011600082B000AFC320FFF783FF0346FB71FB791A
:1011700003F00303DBB218460837BD4680BD00000C
:1011800080B584B000AF0346FB71FB79032B03D914
:101190000E48FFF735FB16E0C320FFF769FF034653
:1011A000FB7397F90F3023F003035AB297F9073016
:1011B00003F003035BB213435BB2FB73FB7B194683
:1011C000C320FFF739FF1037BD4680BD0C1501085D
:1011D00080B584B000AF0346FB71FB79002B1AD0B9
:1011E000FB79022B17D8FB791B01DBB20D33DBB285
:1011F0001846FFF73DFF0346FB73FB7B23F0080314
:10120000FB73FB791B01DBB20D33DBB2FA7B1146BA
:101210001846FFF711FF00BF1037BD4680BD80B5EF
:1012200084B000AF0346FB71FB79002B1AD0FB7929
:10123000022B17D8FB791B01DBB20C33DBB218464B
:10124000FFF716FF0346FB73FB7B63F07F03FB7323
:10125000FB791B01DBB20C33DBB2FA7B114618467B
:10126000FFF7EAFE00BF1037BD4680BD80B584B0F1
:1012700000AF03463960FB71FB79002B27D0FB7967
:10128000022B24D8FB791B01DBB20C33DBB21846EE
:10129000FFF7EEFE0346FB733B680F4A934204D10F
:1012A000FB7B43F04003FB7307E03B680B4A934230
:1012B00003D1FB7B23F04003FB73FB791B01DBB203
:1012C0000C33DBB2FA7B11461846FFF7B5FE00BFC0
:1012D0001037BD4680BD00BF00E1F505809698003F
:1012E00080B584B000AF03460A46FB711346BB715C
:1012F000FB79002B22D0FB79022B1FD8FB791B0135
:10130000DBB20C33DBB21846FFF7B2FE0346FB73C9
:10131000BB79002B04D0FB7B43F02003FB7303E07D
:10132000FB7B23F02003FB73FB791B01DBB20C3347
:10133000DBB2FA7B11461846FFF77EFE00BF10377E
:10134000BD4680BD80B584B000AF0346FB71FB791C
:10135000002B1AD0FB79022B17D8FB791B01DBB2CB
:101360000D33DBB21846FFF783FE0346FB73FB7BAE
:1013700003F07F03FB73FB791B01DBB20D33DBB2A0
:10138000FA7B11461846FFF757FE00BF1037BD46DF
:1013900080BD80B483B000AF0346FB80FB88DBB226
:1013A00018460C37BD465DF8047B704780B483B0A7
:1013B00000AF0346FB80FB881B0A9BB2DBB21846DA
:1013C0000C37BD465DF8047B704780B584B000AF34
:1013D00003460A46FB711346BB71FB79002B22D0F2
:1013E000FB79022B1FD8FB791B01DBB20C33DBB27C
:1013F0001846FFF73DFE0346FB73BB79002B04D074
:10140000FB7B43F01003FB7303E0FB7B23F0100333
:10141000FB73FB791B01DBB20C33DBB2FA7B1146A9
:101420001846FFF709FE00BF1037BD4680BD80B5E6
:1014300084B000AF03460A46FB711346BB71FB79CB
:10144000002B22D0FB79022B1FD8FB791B01DBB2CA
:101450000C33DBB21846FFF70BFE0346FB73BB7978
:10146000002B04D0FB7B43F00803FB7303E0FB7B02
:1014700023F00803FB73FB791B01DBB20C33DBB2F7
:10148000FA7B11461846FFF7D7FD00BF1037BD465F
:1014900080BD80B584B000AF03460A46FB71134699
:1014A000BB71FB79002B22D0FB79022B1FD8FB7973
:1014B0001B01DBB20C33DBB21846FFF7D9FD034644
:1014C000FB73BB79002B04D0FB7B43F00403FB735D
:1014D00003E0FB7B23F00403FB73FB791B01DBB20E
:1014E0000C33DBB2FA7B11461846FFF7A5FD00BFAF
:1014F0001037BD4680BD80B584B000AF03460A46B4
:10150000FB711346BB71FB79002B22D0FB79022BB8
:101510001FD8FB791B01DBB20C33DBB21846FFF797
:10152000A7FD0346FB73BB79002B04D0FB7B43F084
:101530000203FB7303E0FB7B23F00203FB73FB79E5
:101540001B01DBB20C33DBB2FA7B11461846FFF706
:1015500073FD00BF1037BD4680BD80B584B000AFBD
:1015600003460A46FB711346BB71FB79002B22D060
:10157000FB79022B1FD8FB791B01DBB20C33DBB2EA
:101580001846FFF775FD0346FB73BB79002B04D0AB
:10159000FB7B43F00103FB7303E0FB7B23F00103C0
:1015A000FB73FB791B01DBB20C33DBB2FA7B114618
:1015B0001846FFF741FD00BF1037BD4680BD000053
:1015C00090B5ADF5935D81B000AFC34B5B6903F49B
:1015D0008033002B59D1C04B0022C3F88420BFF3C5
:1015E0004F8F00BFBC4BD3F8803041F24C223A44BD
:1015F000136041F24C233B441B685B0BC3F30E03A7
:1016000041F248223A44136041F24C233B441B68A8
:10161000DB08C3F3090341F244223A44136041F268
:1016200048233B441B685A0143F6E073134041F2E0
:1016300044223A4412689207A7491343C1F8603222
:1016400041F244233B441B685A1E41F24421394471
:101650000A60002BE3D141F248233B441B685A1E29
:1016600041F2482139440A60002BCDD1BFF34F8F9E
:1016700000BF994B5B69984A43F480335361BFF3D1
:101680004F8F00BFBFF36F8F00E000BF02F0AAF9D9
:1016900000F048F900F0C2FE00F028FE00F07EFAEB
:1016A00000F068FB00F0BAFB00F050FC00F09CFC7E
:1016B00000F0E8FC00F034FD00F080FD00F05EFE7C
:1016C00000F0ACFA00F0C6FD00F0A4F900F0FCFA5E
:1016D00000F018FA8148FFF793F8002341F25C22EA
:1016E0003A441360002341F25C223A441360FFF74E
:1016F0004BF941F25C233B44186041F25C233B44CC
:1017000019687748FFF77CF84FF47A7002F0FCF91B
:10171000FFF71EF941F25C233B4418607148FFF764
:101720006FF841F25C233B4419686F48FFF768F893
:10173000002341F258223A4413606C48FFF760F8E6
:10174000FFF720F86A48FFF75BF8FEF7FDFF41F26C
:1017500058233B44186041F258233B4419686548BC
:10176000FFF74EF8002341F258223A441360FFF786
:1017700023F841F258233B44186041F258233B447C
:1017800019685D48FFF73CF85C4B41F254223A443B
:10179000136041F254233B4419685948FFF730F86D
:1017A000FFF728F9FFF782FC0120FFF725FA022056
:1017B000FFF722FA0320FFF71FFA0120FFF74AFA8A
:1017C0000220FFF747FA0320FFF744FA0120FFF752
:1017D00085FA0220FFF782FA0320FFF77FFA012043
:1017E000FFF722FB0220FFF71FFB03210120FFF779
:1017F000B7FA0120FFF718FB0220FFF715FBFFF7F0
:10180000AEFC034641F253223A44137041F2532393
:101810003B441B7819463B48FEF7F2FF0020FFF7D8
:10182000AFFCFFF79CFC034641F253223A4413708D
:1018300041F253233B441B7819463248FEF7E0FF40
:1018400007F51873A3F509732F4A92E8030018608F
:10185000043319802D4B03F593533B441846FFF78F
:1018600013F83B461846FFF74DFC07F51873A3F530
:101870000B73274A92E8030018600433198007F5B8
:101880001873A3F50D73234A92E80300186004331C
:10189000198007F51873A3F511731F4A1C461346E8
:1018A0000FCB84E80F001D4B03F593533B441946BF
:1018B0000020FFF729FB194B03F593533B441846CF
:1018C00000F04AFF1648FEF79BFF4FF4FA7002F053
:1018D0001BF900BFF6E700BF00ED00E09416010819
:1018E000A0160108B8160108BC160108CC1601089C
:1018F000D4160108DC160108E8160108EFBEADDEBB
:10190000F81601080817010824170108DCEDFFFF8D
:101910002C170108341701083C170108ACEDFFFF34
:101920001817010880B59CB000AF07F124034C22C2
:10193000002118460EF086FF3B1D2022002118468C
:101940000EF080FF022007F0DFFA00233B602F4BF0
:101950009B692E4A23F4404393612C4B9B6903F40B
:1019600040433B603B6800BF284B9B6903F4005336
:10197000B3F5005FF8D1264B9B6A254A23F0030399
:10198000936202237B6201233B6340237B63022338
:10199000BB640023FB6404233B6522237B65012396
:1019A000BB650323FB6502233B660C237B66002398
:1019B000BB664FF44063FB6607F12403184607F04B
:1019C000DDFA0346002B01D000F0C0FE3F237B6010
:1019D0000323BB600023FB6008233B6140237B6142
:1019E0004023BB614FF48063FB6140233B623B1D9E
:1019F0000321184607F070FE0346002B01D000F0CB
:101A0000A5FE00BF7037BD4680BD00BF004802582C
:101A10000044025880B58CB000AF07F124030022C7
:101A20001A605A609A603B462422002118460EF044
:101A300009FF314B314A1A602F4B00225A602E4B5E
:101A400000229A602C4B00221A612B4B04225A610F
:101A5000294B00221A76284B00225A76264B012267
:101A6000DA61254B002283F82020234B00229A6262
:101A7000214B0022DA62204B00221A631E4B002207
:101A8000DA631D4B00221A641B4B002283F84420AA
:101A9000194802F0B7FA0346002B01D000F056FEB9
:101AA00000237B6207F124031946134803F0F0FA80
:101AB0000346002B01D000F049FE114B3B6006238A
:101AC0007B600023BB6040F2FF73FB6004233B613B
:101AD00000237B61002387F821303B4619460648E6
:101AE00002F098FC0346002B01D000F02FFE00BF4F
:101AF0003037BD4680BD00BF780200240020024080
:101B00000800900C80B500AF1E4B1F4A1A601F4B97
:101B100000221A701D4B80225A701C4BE1229A70D1
:101B20001A4B0022DA70194B00221A71174B00224F
:101B30005A71144B154A5A60124B01221A72114BFA
:101B4000134ADA600F4B134A1A610E4B40F2F452FB
:101B50005A610C4806F0D2FA0346002B01D000F07F
:101B6000F5FD342200210C480EF06CFE0A4B2122B8
:101B70001A60094B4FF440325A61074B00221A6138
:101B800000BF80BDE802002400800240D80A002483
:101B9000C0000024600000244402002480B500AF8F
:101BA0001B4B1C4A1A601A4B1B4A5A60184B0022E6
:101BB0009A60174B0122DA60154B00221A61144B10
:101BC00000225A61124B00229A61114B0022DA6105
:101BD0000F4B00221A620E4807F06EF80346002BE6
:101BE00001D000F0B3FD0021094807F0F5F80346E5
:101BF000002B01D000F0AAFD0021054807F037F9BD
:101C00000346002B01D000F0A1FD00BF80BD00BF46
:101C100070030024001C0058FB49D00080B500AFC1
:101C2000274B284A1A60264B4FF480025A60244BF7
:101C300000229A60224B0722DA60214B00221A61AF
:101C40001F4B00225A611E4B4FF080629A611C4B61
:101C50004FF0C042DA611A4B00221A62184B002280
:101C60005A62174B00229A62154B0022DA62144B1B
:101C70004FF080425A63124B00229A63104B0022AD
:101C8000DA630F4B00221A640D4B00225A640C4B8E
:101C900000229A640A4B0022DA64094B00221A657A
:101CA000074B00225A65064B00229A6504480AF049
:101CB0006FF90346002B01D000F048FD00BF80BD46
:101CC000BC0300240030014080B500AF274B284AF8
:101CD0001A60264B4FF480025A60244B00229A600F
:101CE000224B0722DA60214B00221A611F4B00228F
:101CF0005A611E4B4FF080629A611C4B4FF0C042FC
:101D0000DA611A4B00221A62184B00225A62174BF2
:101D100000229A62154B0022DA62144B4FF0804287
:101D20005A63124B00229A63104B0022DA630F4B66
:101D300000221A640D4B00225A640C4B00229A6454
:101D40000A4B0022DA64094B00221A65074B002275
:101D50005A65064B00229A6504480AF019F90346B1
:101D6000002B01D000F0F2FC00BF80BD4404002431
:101D70000034014080B588B000AF07F110030022A5
:101D80001A605A609A60DA603B1D00221A605A603D
:101D90009A60204B204A1A601E4B00225A601D4B4D
:101DA00000229A601B4B4FF6FF72DA60194B00223B
:101DB0001A61184B00225A61164B00229A6115488D
:101DC0000BF037FE0346002B01D000F0BFFC4FF4B0
:101DD00080533B6107F1100319460E480BF0F6FFE4
:101DE0000346002B01D000F0B1FC00237B600023F0
:101DF000BB600023FB603B1D194606480CF0F8FC55
:101E00000346002B01D000F0A1FC00BF2037BD46E7
:101E100080BD00BFAC0600240000014080B58EB03C
:101E200000AF07F1280300221A605A609A60DA6056
:101E300007F11C0300221A605A609A603B46002298
:101E40001A605A609A60DA601A615A619A613E4B70
:101E50004FF080421A603C4B00225A603A4B0022FD
:101E60009A60394B4FF0FF32DA60374B00221A612B
:101E7000354B00229A6134480BF0DBFD0346002B02
:101E800001D000F063FC4FF48053BB6207F12803DC
:101E900019462D480BF09AFF0346002B01D000F0A5
:101EA00055FC29480BF01CFE0346002B01D000F026
:101EB0004DFC0023FB6100237B6207F11C031946E4
:101EC00021480CF095FC0346002B01D000F03EFCAD
:101ED00060233B6000237B600023BB6000233B61E9
:101EE0003B460022194618480BF05CFE0346002BC7
:101EF00001D000F02BFC3B460422194612480BF09F
:101F000051FE0346002B01D000F020FC3B46082286
:101F100019460D480BF046FE0346002B01D000F099
:101F200015FC3B460C22194607480BF03BFE0346C6
:101F3000002B01D000F00AFC034801F017F800BFA5
:101F40003837BD4680BD00BFF806002480B500AF1D
:101F5000234B244A1A60224B4FF461325A60204BC3
:101F60004FF480529A601E4B0022DA601C4B4FF4F3
:101F700080621A611A4B0C225A61194B00229A6135
:101F8000174B0022DA61164B00221A62144B002212
:101F90005A62134B00229A6211480CF0C5FC0346AA
:101FA000002B01D000F0D2FB00210D480EF080FA8A
:101FB0000346002B01D000F0C9FB002108480EF0B9
:101FC000B5FA0346002B01D000F0C0FB04480EF028
:101FD00036FA0346002B01D000F0B8FB00BF80BDED
:101FE00044070024004C004080B500AF234B244A36
:101FF0001A60224B4FF461325A60204B4FF48052EA
:102000009A601E4B0022DA601C4B4FF480621A610A
:102010001A4B0C225A61194B00229A61174B00226D
:10202000DA61164B00221A62144B00225A62134BDB
:1020300000229A6211480CF077FC0346002B01D075
:1020400000F084FB00210D480EF032FA0346002B0D
:1020500001D000F07BFB002108480EF067FA034630
:10206000002B01D000F072FB04480EF0E8F90346A3
:10207000002B01D000F06AFB00BF80BDD407002414
:102080000050004080B500AF234B244A1A60224B19
:102090004FF461325A60204B4FF480529A601E4BCD
:1020A0000022DA601C4B4FF480621A611A4B0C223A
:1020B0005A61194B00229A61174B0022DA61164BC4
:1020C00000221A62144B00225A62134B00229A62B9
:1020D00011480CF029FC0346002B01D000F036FB20
:1020E00000210D480EF0E4F90346002B01D000F06A
:1020F0002DFB002108480EF019FA0346002B01D0F1
:1021000000F024FB04480EF09AF90346002B01D09E
:1021100000F01CFB00BF80BD640800240078004074
:1021200080B500AF234B244A1A60224B4FF4613232
:102130005A60204B4FF480529A601E4B0022DA60A6
:102140001C4B4FF480621A611A4B0C225A61194BD6
:1021500000229A61174B0022DA61164B00221A62A4
:10216000144B00225A62134B00229A6211480CF061
:10217000DBFB0346002B01D000F0E8FA00210D48FC
:102180000EF096F90346002B01D000F0DFFA002193
:1021900008480EF0CBF90346002B01D000F0D6FA28
:1021A00004480EF04CF90346002B01D000F0CEFAA3
:1021B00000BF80BDF40800240010014080B500AFCE
:1021C000224B234A1A60214B4FF4E1325A601F4BD5
:1021D00000229A601D4B0022DA601C4B00221A611B
:1021E0001A4B0C225A61194B00229A61174B00229C
:1021F000DA61164B00221A62144B00225A62134B0A
:1022000000229A6211480CF08FFB0346002B01D08C
:1022100000F09CFA00210D480EF04AF90346002B0D
:1022200001D000F093FA002108480EF07FF9034630
:10223000002B01D000F08AFA04480EF000F90346A2
:10224000002B01D000F082FA00BF80BD8409002479
:102250000044004080B500AF224B234A1A60214B56
:102260004FF4E1325A601F4B00229A601D4B00224E
:10227000DA601C4B00221A611A4B0C225A61194B6E
:1022800000229A61174B0022DA61164B00221A6273
:10229000144B00225A62134B00229A6211480CF030
:1022A00043FB0346002B01D000F050FA00210D48FB
:1022B0000EF0FEF80346002B01D000F047FA002193
:1022C00008480EF033F90346002B01D000F03EFA27
:1022D00004480EF0B4F80346002B01D000F036FAA3
:1022E00000BF80BD140A00240048004080B582B0C1
:1022F00000AF214BD3F8D8301F4A43F00203C2F895
:10230000D8301D4BD3F8D83003F002037B607B68D4
:10231000194BD3F8D830184A43F00103C2F8D8302B
:10232000154BD3F8D83003F001033B603B68002223
:1023300000210D2003F069F80D2003F080F8002241
:1023400000210E2003F061F80E2003F078F800223F
:102350000021392003F059F8392003F070F80022E9
:1023600000213B2003F051F83B2003F068F800BF48
:102370000837BD4680BD00BF0044025880B588B014
:1023800000AF3B1D00221A605A609A60DA601A6141
:102390005A619A611F4B204A1A601E4B00225A60F4
:1023A0001C4B00229A601B4B0422DA60194B00225E
:1023B0001A61184B40225A61164B80229A61154BC4
:1023C0000022DA61134B4FF400621A62114B4FF492
:1023D00080525A620F4B00229A6210237B601023B6
:1023E000BB601023FB6010233B6110237B61102333
:1023F000BB611023FB613B1D1946064809F08CFDAB
:102400000346002B01D000F0A1F900BF2037BD46E4
:1024100080BD00BFA40A00244041005280B58CB0AA
:1024200000AF07F11C0300221A605A609A60DA605C
:102430001A61BE4BD3F8E030BC4A43F01003C2F837
:10244000E030BA4BD3F8E03003F01003BB61BB6956
:10245000B64BD3F8E030B54A43F00403C2F8E0309D
:10246000B24BD3F8E03003F004037B617B69AF4BE0
:10247000D3F8E030AD4A43F02003C2F8E030AB4B74
:10248000D3F8E03003F020033B613B69A74BD3F85E
:10249000E030A64A43F00103C2F8E030A34BD3F882
:1024A000E03003F00103FB60FB68A04BD3F8E030A1
:1024B0009E4A43F00203C2F8E0309C4BD3F8E03070
:1024C00003F00203BB60BB68984BD3F8E030974A37
:1024D00043F04003C2F8E030944BD3F8E03003F00F
:1024E00040037B607B68914BD3F8E0308F4A43F028
:1024F0000803C2F8E0308D4BD3F8E03003F0080356
:102500003B603B68002240F60821894806F0BAFB90
:1025100001221021864806F0B5FB00224FF443410A
:10252000844806F0AFFB00224FF44071824806F069
:10253000A9FB01220121814806F0A4FB002240F6FC
:1025400018017F4806F09EFB00228C217D4806F092
:1025500099FB00224FF4D8417B4806F093FB0823F7
:10256000FB6101233B6200237B620323BB6207F113
:102570001C0319466E4806F0DDF91023FB610123A8
:102580003B6200237B620223BB6207F11C031946F6
:10259000674806F0CFF94FF40353FB6100233B6219
:1025A00000237B6207F11C031946624806F0C2F95A
:1025B0004FF44343FB6101233B6200237B62002312
:1025C000BB6207F11C0319465A4806F0B3F94FF4F1
:1025D0004073FB6101233B6200237B620023BB62EB
:1025E00007F11C031946544806F0A4F90123FB61C6
:1025F00001233B6200237B620023BB6207F11C03C3
:1026000019464E4806F096F94FF44D73FB610023CE
:102610003B6200237B6207F11C031946474806F022
:1026200089F94FF42063FB6101233B6200237B6245
:102630000023BB6207F11C0319463D4806F07AF9F6
:102640004FF40063FB6101233B6200237B620323A1
:10265000BB6207F11C031946394806F06BF98C235D
:10266000FB6101233B6200237B620023BB6207F115
:102670001C031946334806F05DF94FF48863FB618B
:102680004FF488133B6200237B6207F11C03194659
:102690002C4806F04FF94FF40073FB614FF4881398
:1026A0003B6200237B6207F11C031946264806F0B3
:1026B00041F94FF44063FB6101233B6200237B62DD
:1026C0000023BB6207F11C0319461F4806F032F9CC
:1026D0004FF4C043FB6111233B6200237B62002364
:1026E000BB6207F11C031946174806F023F90423BF
:1026F000FB614FF488133B6200237B6207F11C03EC
:1027000019460F4806F016F91823FB6101233B62B6
:1027100000237B620023BB6207F11C0319460848B3
:1027200006F008F900BF3037BD4680BD00440258AE
:102730000010025800080258001402580004025801
:10274000000C0258001802580000025880B400AF74
:1027500072B600BF00BFFDE780B582B000AF786001
:102760001348FEF74DF81348FEF74AF87B68184601
:10277000FEF78AF81048FEF743F87B689B79194604
:102780000E48FEF73DF87B689B6819460C48FEF73B
:1027900037F87B681B7B002B01D00A4B00E00A4B0B
:1027A00019460A48FEF72CF800BF0837BD4680BD21
:1027B0004C17010860170108701701087417010809
:1027C00088170108A8170108B0170108B8170108F1
:1027D00080B483B000AF0A4BD3F8F430084A43F01A
:1027E0000203C2F8F430064BD3F8F43003F00203CE
:1027F0007B607B6800BF0C37BD465DF8047B70478B
:102800000044025880B5B8B000AF786007F1CC033F
:1028100000221A605A609A60DA601A6107F11803A0
:10282000B422002118460EF00DF87B681B68394A67
:1028300093426AD14FF40023BB610423FB610C2354
:102840003B6202237B620223BB620223FB62C02342
:102850003B6300237B630023BB630023C7F8B430D2
:1028600007F11803184607F0C3FA0346002B01D0FE
:10287000FFF76CFF284BD3F8D830274A43F02003EA
:10288000C2F8D830244BD3F8D83003F020037B6152
:102890007B69214BD3F8E0301F4A43F00103C2F8B3
:1028A000E0301D4BD3F8E03003F001033B613B699E
:1028B000194BD3F8E030184A43F00203C2F8E03075
:1028C000154BD3F8E03003F00203FB60FB684023B4
:1028D000C7F8CC300323C7F8D0300023C7F8D43072
:1028E00007F1CC0319460D4806F024F80223C7F877
:1028F000CC300323C7F8D0300023C7F8D43007F119
:10290000CC031946064806F015F800BFE037BD466F
:1029100080BD00BF00200240004402580000025861
:102920000004025880B58EB000AF786007F1240330
:1029300000221A605A609A60DA601A617B681B682C
:10294000494A934240F08B80484BD3F8D830474AED
:1029500043F40043C2F8D830444BD3F8D83003F4E2
:1029600000433B623B6A414BD3F8D8303F4A43F4C3
:102970008033C2F8D8303D4BD3F8D83003F48033DD
:10298000FB61FB69394BD3F8D830384A43F4003344
:10299000C2F8D830354BD3F8D83003F40033BB61DC
:1029A000BB69324BD3F8E030304A43F00403C2F83D
:1029B000E0302E4BD3F8E03003F004037B617B69F9
:1029C0002A4BD3F8E030294A43F00103C2F8E03043
:1029D000264BD3F8E03003F001033B613B69234B06
:1029E000D3F8E030214A43F04003C2F8E0301F4BF7
:1029F000D3F8E03003F04003FB60FB6832237B62D6
:102A00000223BB620023FB6200233B630B237B6337
:102A100007F124031946164805F08CFF86237B62D4
:102A20000223BB620023FB6200233B630B237B6317
:102A300007F1240319460F4805F07CFF4FF460535B
:102A40007B620223BB620023FB6200233B630B23F8
:102A50007B6307F124031946074805F06BFF00BFAD
:102A60003837BD4680BD00BF008002400044025898
:102A700000080258000002580018025880B5B6B08D
:102A800000AF786007F1C40300221A605A609A60B0
:102A9000DA601A6107F11003B422002118460DF024
:102AA000D1FE7B681B68254A934242D110233B61CB
:102AB0000023C7F8A03007F11003184607F098F973
:102AC0000346002B01D0FFF741FE1D4BD3F8E03049
:102AD0001B4A43F00803C2F8E030194BD3F8E0304A
:102AE00003F00803FB60FB684FF44053C7F8C430A1
:102AF0001223C7F8C8300023C7F8CC300023C7F82A
:102B0000D0300423C7F8D43007F1C40319460D4868
:102B100005F010FF0A4BD3F8F430094A43F0800364
:102B2000C2F8F430064BD3F8F43003F08003BB60F6
:102B3000BB6800BFD837BD4680BD00BF001C005831
:102B400000440258000C025880B5BAB000AF78605B
:102B500007F1D40300221A605A609A60DA601A61A1
:102B600007F12003B422002118460DF06BFE7B68AC
:102B70001B687A4A934240F003814FF480533B62D2
:102B80000023BB6707F12003184607F031F903461D
:102B9000002B01D0FFF7DAFD714BD3F8F030704A0B
:102BA00043F48053C2F8F0306D4BD3F8F03003F4A7
:102BB0008053FB61FB696A4BD3F8E030684A43F00D
:102BC0000103C2F8E030664BD3F8E03003F00103B4
:102BD000BB61BB69624BD3F8E030614A43F0080344
:102BE000C2F8E0305E4BD3F8E03003F008037B61BD
:102BF0007B695B4BD3F8E030594A43F04003C2F89D
:102C0000E030574BD3F8E03003F040033B613B69C1
:102C10002023C7F8D4300223C7F8D8300023C7F8E0
:102C2000DC300023C7F8E0300523C7F8E43007F1B3
:102C3000D40319464B4805F07DFE8023C7F8D430F5
:102C40000223C7F8D8300023C7F8DC300023C7F8C8
:102C5000E0300523C7F8E43007F1D40319464248B1
:102C600005F068FE4FF40073C7F8D4300223C7F8AC
:102C7000D8300023C7F8DC300023C7F8E030052344
:102C8000C7F8E43007F1D4031946384805F052FE7E
:102C9000374B384A1A60364B26225A60344B402252
:102CA0009A60334B0022DA60314B4FF480621A6134
:102CB0002F4B00225A612E4B00229A612C4B00228E
:102CC000DA612B4B4FF400321A62294B00225A6210
:102CD000274802F0CFFB0346002B01D0FFF736FD5B
:102CE0007B68234A9A67224A7B689363224B234A74
:102CF0001A60214B25225A601F4B00229A601E4BFE
:102D00000022DA601C4B4FF480621A611A4B0022D9
:102D10005A61194B00229A61174B0022DA61164B57
:102D20004FF400321A62144B00225A62124802F029
:102D3000A1FB0346002B01D0FFF708FD7B680E4A7C
:102D4000DA670D4A7B68936300220321232002F097
:102D50005CFB232002F073FBBEE000BF00300140AB
:102D60000044025800000258000C02580018025893
:102D7000CC040024400002404405002458000240D6
:102D80007B681B68564A934240F0A6804FF400537C
:102D90003B620023FB6707F12003184607F028F881
:102DA0000346002B01D0FFF7D1FC4E4BD3F8F03097
:102DB0004C4A43F40053C2F8F0304A4BD3F8F03099
:102DC00003F40053FB60FB68464BD3F8E030454A00
:102DD00043F01003C2F8E030424BD3F8E03003F088
:102DE0001003BB60BB686423C7F8D4300223C7F864
:102DF000D8300023C7F8DC300023C7F8E0300523C3
:102E0000C7F8E43007F1D4031946374805F092FDBE
:102E1000364B374A1A60354B54225A60334B4022A6
:102E20009A60324B0022DA60304B4FF480621A61B4
:102E30002E4B00225A612D4B00229A612B4B00220F
:102E4000DA612A4B4FF400321A62284B00225A6290
:102E5000264802F00FFB0346002B01D0FFF776FC5B
:102E60007B68224A9A67214A7B689363214B224AF6
:102E70001A60204B53225A601E4B00229A601D4B51
:102E80000022DA601B4B4FF480621A61194B00225A
:102E90005A61184B00229A61164B0022DA61154BD9
:102EA0004FF400321A62134B00225A62114802F0AA
:102EB000E1FA0346002B01D0FFF748FC7B680D4A7E
:102EC000DA670C4A7B68936300220321542002F0E6
:102ED0009CFA542002F0B3FA00BFE837BD4680BD2B
:102EE000003401400044025800100258BC05002480
:102EF00028040240340600245804024080B485B0FF
:102F000000AF78607B681B68164A93420FD1164B5E
:102F1000D3F8F030144A43F00103C2F8F030124BFA
:102F2000D3F8F03003F00103FB60FB6813E07B682B
:102F30001B68B3F1804F0ED10B4BD3F8E8300A4A2F
:102F400043F00103C2F8E830074BD3F8E83003F050
:102F50000103BB60BB6800BF1437BD465DF8047B4E
:102F6000704700BF000001400044025880B58AB09D
:102F700000AF786007F1140300221A605A609A606B
:102F8000DA601A617B681B68B3F1804F3FD1224B36
:102F9000D3F8E030204A43F00103C2F8E0301E4B82
:102FA000D3F8E03003F001033B613B691A4BD3F8DF
:102FB000E030194A43F00203C2F8E030164BD3F870
:102FC000E03003F00203FB60FB6848F208037B611A
:102FD0000223BB610023FB6100233B6201237B6270
:102FE00007F1140319460D4805F0A4FC4FF4816362
:102FF0007B610223BB610023FB6100233B62012351
:103000007B6207F114031946054805F093FC00BFE5
:103010002837BD4680BD00BF00440258000002585A
:103020000004025880B5C2B000AF07F58473A3F561
:103030008273186007F1F40300221A605A609A60E4
:10304000DA601A6107F14003B422002118460DF03E
:10305000F9FB07F58473A3F582731B681B68B94AF3
:10306000934270D102233B640023C7F8B03007F1CC
:103070004003184606F0BCFE0346002B01D0FFF7C4
:1030800065FBB14BD3F8E830AF4A43F40023C2F8F4
:10309000E830AD4BD3F8E83003F40023FB63FB6B5F
:1030A000A94BD3F8E030A84A43F00103C2F8E0305E
:1030B000A54BD3F8E03003F00103BB63BB6BA24B1D
:1030C000D3F8E030A04A43F00403C2F8E0309E4B4E
:1030D000D3F8E03003F004037B637B6B4FF4805341
:1030E000C7F8F4300223C7F8F8300023C7F8FC30E3
:1030F0000023C7F800310623C7F8043107F1F403B1
:103100001946924805F016FC4FF40063C7F8F430F6
:103110000223C7F8F8300023C7F8FC300023C7F8B3
:1031200000310823C7F8043107F1F4031946884831
:1031300005F000FC00220021342002F066F9342062
:1031400002F07DF9E5E107F58473A3F582731B684E
:103150001B68804A93424BD102233B640023C7F88B
:10316000B03007F14003184606F042FE0346002B3C
:1031700001D0FFF7EBFA744BD3F8E830724A43F40E
:103180008013C2F8E830704BD3F8E83003F48013B2
:103190003B633B6B6C4BD3F8E0306B4A43F002036C
:1031A000C2F8E030684BD3F8E03003F00203FB6272
:1031B000FB6A4FF44053C7F8F4300223C7F8F830E5
:1031C0000023C7F8FC300023C7F800310E23C7F8EE
:1031D000043107F1F40319465F4805F0ABFB002208
:1031E0000021352002F011F9352002F028F990E194
:1031F00007F58473A3F582731B681B68574A9342D3
:103200004AD102233B640023C7F8B03007F14003E2
:10321000184606F0EDFD0346002B01D0FFF796FAA5
:10322000494BD3F8E830484A43F08043C2F8E830CD
:10323000454BD3F8E83003F08043BB62BB6A424B96
:10324000D3F8E030404A43F02003C2F8E0303E4B70
:10325000D3F8E03003F020037B627B6AC023C7F819
:10326000F4300223C7F8F8300023C7F8FC300023FD
:10327000C7F800310723C7F8043107F1F4031946F2
:10328000374805F057FB00220021522002F0BDF81C
:10329000522002F0D4F83CE107F58473A3F5827361
:1032A0001B681B682F4A93425ED101233B640023B5
:1032B000C7F8B43007F14003184606F099FD0346FD
:1032C000002B01D0FFF742FA1F4BD3F8F0301E4A13
:1032D00043F01003C2F8F0301B4BD3F8F03003F08A
:1032E00010033B623B6A184BD3F8E030164A43F0B8
:1032F0000203C2F8E030144BD3F8E03003F00203CD
:10330000FB61FB694FF44043C7F8F4300223C7F870
:10331000F8300023C7F8FC300023C7F8003104233D
:10332000C7F8043107F1F40319460B4805F002FB16
:1033300000220021252002F068F8252002F07FF805
:10334000E7E000BF004C0040004402580000025873
:103350000008025800500040000402580078004065
:10336000001402580010014007F58473A3F582731E
:103370001B681B68694A93424AD102233B640023BD
:10338000C7F8B03007F14003184606F031FD034698
:10339000002B01D0FFF7DAF9614BD3F8E830604A2F
:1033A00043F40033C2F8E8305D4BD3F8E83003F45F
:1033B0000033BB61BB695A4BD3F8E030584A43F045
:1033C0000803C2F8E030564BD3F8E03003F00803AE
:1033D0007B617B696023C7F8F4300223C7F8F830BB
:1033E0000023C7F8FC300023C7F800310723C7F8D3
:1033F000043107F1F40319464A4805F09BFA00220C
:103400000021262002F001F8262002F018F880E0C2
:1034100007F58473A3F582731B681B68424A9342C5
:1034200077D102233B640023C7F8B03007F1400393
:10343000184606F0DDFC0346002B01D0FFF786F9A5
:10344000374BD3F8E830364A43F48023C2F8E830EB
:10345000334BD3F8E83003F480233B613B69304BB6
:10346000D3F8E0302E4A43F00203C2F8E0302C4B90
:10347000D3F8E03003F00203FB60FB68284BD3F87D
:10348000E030274A43F00403C2F8E030244BD3F87D
:10349000E03003F0040207F58473A3F580731A602B
:1034A00007F58473A3F580731B684FF40063C7F8B6
:1034B000F4300223C7F8F8300023C7F8FC300023AB
:1034C000C7F800310723C7F8043107F1F4031946A0
:1034D000164805F02FFA4FF48063C7F8F430022342
:1034E000C7F8F8300023C7F8FC300023C7F80031D4
:1034F0000723C7F8043107F1F40319460C4805F017
:1035000019FA00220021272001F07FFF272001F077
:1035100096FF00BF07F58477BD4680BD004400409C
:1035200000440258000C02580048004000040258B1
:103530000008025880B5B4B000AF07F1BC03002208
:103540001A605A609A60DA601A615A4B1B68002B45
:1035500040F0AC80574B01221A6007F10803B422F7
:10356000002118460DF06EF94FF08073BB60002308
:10357000FB6407F10803184606F03AFC0346002BEB
:1035800001D0FFF7E3F84C4BD3F8D4304A4A43F468
:103590008053C2F8D430484BD3F8D43003F480536E
:1035A0007B607B684FF63F03C7F8BC300223C7F847
:1035B000C0300023C7F8C4300323C7F8C8300C2339
:1035C000C7F8CC3007F1BC0319463C4805F0B2F906
:1035D0000D23C7F8BC300223C7F8C0300023C7F85A
:1035E000C4300323C7F8C8300C23C7F8CC3007F128
:1035F000BC031946324805F09DF948F23313C7F869
:10360000BC300223C7F8C0300023C7F8C4300323FE
:10361000C7F8C8300C23C7F8CC3007F1BC031946F3
:10362000284805F087F94FF4B063C7F8BC3002238F
:10363000C7F8C0300023C7F8C4300323C7F8C83028
:103640000C23C7F8CC3007F1BC0319461E4805F01F
:1036500071F94CF20303C7F8BC300223C7F8C0303D
:103660000023C7F8C4300323C7F8C8300C23C7F8B9
:10367000CC3007F1BC031946144805F05BF94FF450
:103680008053C7F8BC300223C7F8C0300023C7F806
:10369000C4300323C7F8C8300123C7F8CC3007F182
:1036A000BC031946064805F045F900E000BFD037D5
:1036B000BD4680BDE00A00240044025800140258B0
:1036C000000802580018025800100258000C025856
:1036D00080B582B000AF7860FFF72CFF00BF0837DD
:1036E000BD4680BD80B400AF00BFFDE780B400AF31
:1036F00000BFFDE780B400AF00BFFDE780B400AFBE
:1037000000BFFDE780B400AF00BFFDE780B400AFAD
:1037100000BFBD465DF8047B704780B400AF00BFBA
:10372000BD465DF8047B704780B400AF00BFBD4666
:103730005DF8047B704780B500AF00F0C5F900BFAD
:1037400080BD000080B500AF024803F0B9F900BFAA
:1037500080BD00BFCC04002480B500AF024803F058
:10376000AFF900BF80BD00BF4405002480B500AFA5
:10377000024809F0B9FD00BF80BD00BFBC030024B2
:1037800080B500AF02480BF0B5F900BF80BD00BFA7
:10379000F408002480B500AF02480BF0ABF900BF7D
:1037A00080BD00BF8409002480B500AF02480BF043
:1037B000A1F900BF80BD00BF140A002480B500AF8E
:1037C00002480BF097F900BF80BD00BF44070024FA
:1037D00080B500AF02480BF08DF900BF80BD00BF7F
:1037E000D407002480B500AF024803F069F900BF98
:1037F00080BD00BFBC05002480B500AF024803F0C7
:103800005FF900BF80BD00BF3406002480B500AF63
:1038100002480BF06FF900BF80BD00BF64080024B0
:1038200080B500AF024809F05FFD00BF80BD00BF5A
:103830004404002480B586B000AF7860144A154B6C
:10384000D31A7B617B693B61134B1B68002B02D150
:10385000114B124A1A60104B1A687B6813443A697C
:103860009A4207D20CF0F6FF03460C221A604FF082
:10387000FF3309E0084B1B68FB60074B1A687B6845
:103880001344054A1360FB6818461837BD4680BDCF
:103890000000052400040000E40A0024380C002481
:1038A00080B400AF324BD3F88830314A43F4700310
:1038B000C2F888302F4B1B6803F00F03062B07D884
:1038C0002C4B1B6823F00F032A4A43F007031360B5
:1038D000294B1B68284A43F001031360264B002242
:1038E0001A61254B1A682449244B13400B60214B65
:1038F0001B6803F00803002B07D01E4B1B6823F046
:103900000F031C4A43F0070313601B4B00229A610C
:10391000194B0022DA61184B00221A62164B184A22
:103920009A62154B174ADA62134B174A1A63124B05
:1039300000225A63104B144A9A630F4B0022DA6339
:103940000D4B114A1A640C4B00225A640A4B1B6837
:10395000094A23F480231360074B00221A660B4B9D
:1039600043F2D2021A6000BFBD465DF8047B704787
:1039700000ED00E000200052004402587FEDF6EA1E
:10398000000202020000FF0180020101004000521B
:10399000DFF834D0FFF784FF0C480D490D4A0023AF
:1039A00002E0D458C4500433C4188C42F9D30A4AF4
:1039B0000A4C002301E013600432A242FBD30CF056
:1039C0004FFFFDF7FDFD70470000052400000024B7
:1039D000600000249418010820010024340C002405
:1039E000FEE7000080B582B000AF032001F002FDC9
:1039F00006F028F80246154B9B691B0A03F00F03DB
:103A00001349CB5C03F01F0322FA03F37B600F4BD7
:103A10009B6903F00F030E4AD35C03F01F037A681F
:103A200022FA03F30B4A13600B4A7B6813600F20E2
:103A300000F014F80346002B01D0012302E0FEF74A
:103A4000C7FE002318460837BD4680BD0044025813
:103A500010180108040000240000002480B582B082
:103A600000AF7860154B1B78002B01D1012321E0BA
:103A7000134B1A68114B1B7819464FF47A73B3FB3A
:103A8000F1F3B2FBF3F3184601F0E7FC0346002B19
:103A900001D001230EE07B680F2B0AD80022796841
:103AA0004FF0FF3001F0B1FC064A7B681360002341
:103AB00000E0012318460837BD4680BD0C000024F5
:103AC000000000240800002480B400AF064B1B78DF
:103AD0001A46064B1B681344044A136000BFBD46D8
:103AE0005DF8047B704700BF0C000024E80A002446
:103AF00080B400AF034B1B681846BD465DF8047BDD
:103B0000704700BFE80A002480B584B000AF786039
:103B1000FFF7EEFFB8607B68FB60FB68B3F1FF3F27
:103B200005D00A4B1B781A46FB681344FB6000BFA4
:103B3000FFF7DEFF0246BB68D31AFA689A42F7D84D
:103B400000BF00BF1037BD4680BD00BF0C00002481
:103B500080B483B000AF7860064B5B6823F46002EA
:103B600004497B6813434B6000BF0C37BD465DF8CA
:103B7000047B70470004005880B483B000AF7860C5
:103B800039607B689B6823F47C123B681A437B682E
:103B90009A6000BF0C37BD465DF8047B704780B467
:103BA00083B000AF786039607B689B6823F0E07277
:103BB0003B681A437B689A6000BF0C37BD465DF8CE
:103BC000047B704780B483B000AF78607B689B68EB
:103BD00003F0E07318460C37BD465DF8047B704770
:103BE00080B487B000AFF860B9607A603B60FB6872
:103BF00060331A46BB689B0013447B61FB68104A24
:103C000093420BD17B691B687B6803F0F8423B68E9
:103C1000134343F000427B691A600BE07B691B6829
:103C200003F000427B6803F0F8413B680B431A4302
:103C30007B691A6000BF1C37BD465DF8047B704786
:103C40000060025880B485B000AF786039607B684E
:103C500060331A463B689B001344FB60FB681B689B
:103C600003F0F84318461437BD465DF8047B7047EF
:103C700080B485B000AFF860B9607A60FB681B69FA
:103C800023F4F042BB6803F01F03796801FA03F3E1
:103C90001A43FB681A6100BF1437BD465DF8047B08
:103CA0007047000080B487B000AFF860B9607A60F8
:103CB000FB680C4A93420ED0FB6860331A46BB681F
:103CC0009B0013447B617B691B6823F000427B6887
:103CD0001A437B691A6000BF1C37BD465DF8047B40
:103CE000704700BF0060025880B487B000AFF86032
:103CF000B9607A60FB680C4A93420ED1FB6860336E
:103D00001A46BB689B0013447B617B691B6823F0E8
:103D100000727B681A437B691A6000BF1C37BD467E
:103D20005DF8047B704700BF0060025880B487B024
:103D300000AFF860B9607A60FB680C4A93420ED11C
:103D4000FB6860331A46BB689B0013447B617B6948
:103D50001B6823F080727B681A437B691A6000BF7E
:103D60001C37BD465DF8047B704700BF00600258F9
:103D700080B487B000AFF860B9607A60FB686033E8
:103D80001A46BB689B0013447B61FB680C4A934254
:103D900008D17B691B6823F000427B681A437B696A
:103DA0001A6007E07B691B6823F000427B681A43B6
:103DB0007B691A6000BF1C37BD465DF8047B704705
:103DC0000060025880B487B000AFF860B9607A60D4
:103DD000FB6830331A46BB681B0A9B0003F00C03D8
:103DE00013447B617B691A68BB6803F01F031F21C2
:103DF00001FA03F3DB431A407B689B0E03F01F01BB
:103E0000BB6803F01F0301FA03F31A437B691A60CE
:103E100000BF1C37BD465DF8047B704780B487B097
:103E200000AFF860B9607A60FB6814331A46BB686B
:103E30005B0E9B0003F0040313447B617B691A68EB
:103E4000BB681B0D03F01F03072101FA03F3DB43DB
:103E50001A40BB681B0D03F01F03796801FA03F3D6
:103E60001A437B691A6000BF1C37BD465DF8047BAE
:103E70007047000080B485B000AFF860B9607A6028
:103E8000FB681A4A934215D1FB68D3F8B020BB688F
:103E9000C3F31303DB431A407B6803F01803144990
:103EA000D940BB680B40C3F313031A43FB68C3F844
:103EB000B02014E0FB68D3F8C020BB68C3F3130341
:103EC000DB431A407B6803F018030949D940BB68FB
:103ED0000B40C3F313031A43FB68C3F8C02000BFB1
:103EE0001437BD465DF8047B704700BF0060025880
:103EF000FFFF0F0080B483B000AF78607B689A68E2
:103F0000044B13407A68936000BF0C37BD465DF8E0
:103F1000047B7047C0FFFF5F80B483B000AF786060
:103F20007B689B6803F00053B3F1005F01D101236C
:103F300000E0002318460C37BD465DF8047B70474F
:103F400080B483B000AF78607B689A68054B1340FB
:103F500043F080527B689A6000BF0C37BD465DF825
:103F6000047B7047C0FFFF6F80B483B000AF786000
:103F70007B689B6803F08053B3F1805F01D101231C
:103F800000E0002318460C37BD465DF8047B7047FF
:103F900080B483B000AF78607B689B6803F0010356
:103FA000012B01D1012300E0002318460C37BD4648
:103FB0005DF8047B704780B483B000AF78607B68A5
:103FC0009B6803F00403042B01D1012300E00023CC
:103FD00018460C37BD465DF8047B704780B483B04B
:103FE00000AF78607B689B6803F00803082B01D161
:103FF000012300E0002318460C37BD465DF8047B22
:104000007047000090B589B000AF78600023FB775F
:104010000023BB607B68002B01D10123EEE17B68AC
:104020001B69002B7B681B6E002B09D17868FEF79B
:10403000E9FB7B6800225A667B68002283F85C20DB
:104040007B681B681846FFF767FF0346002B04D008
:104050007B681B681846FFF74DFF7B681B68184696
:10406000FFF782FF0346002B14D17B681B681846BC
:10407000FFF766FF8E4B1B689B098E4AA2FB03234A
:104080009B090133BB6002E0BB68013BBB60BB68BE
:10409000002BF9D17B681B681846FFF765FF0346C4
:1040A000002B0DD17B681B6E43F010027B681A66F3
:1040B0007B685B6E43F001027B685A660123FB77E5
:1040C0007B681B681846FFF776FF78617B681B6E7C
:1040D00003F01003002B40F088817B69002B40F037
:1040E00084817B681B6E23F4817343F002027B683A
:1040F0001A667B681B681846FFF74AFF0346002BC9
:1041000036D17B681B686C4A934204D07B681B687D
:104110006A4A93420ED16848FFF73AFF044667485F
:10412000FFF736FF03462343002B0CBF0123002378
:10413000DBB208E06248FFF72BFF0346002B0CBF01
:1041400001230023DBB2002B12D07B681B685A4A84
:10415000934204D07B681B68584A934201D1594A64
:1041600000E0594A7B685B6819461046FFF704FD7A
:104170007B681B68524A934229D17B685B7E5A0355
:104180007B68DB6B1A437B68DB681A437B689B6840
:10419000082B13D07B689B680C2B0DD07B689B6829
:1041A0001C2B07D07B689B68182B01D1182306E0D5
:1041B000002304E0102302E0082300E000231A4358
:1041C0007B6893F820301B041343BB610EE07B68CF
:1041D0005B7E5A037B68DB6B1A437B689B681A43E0
:1041E0007B6893F820301B041343BB617B6893F812
:1041F0002030012B06D17B685B6A013B5B04BA6906
:104200001343BB617B689B6A002B09D07B689B6A68
:1042100003F478727B68DB6A1343BA691343BB61AA
:104220007B681B68264A934215D17B681B68DA6855
:10423000264B13407A681268B9690B43D3607B68D8
:104240001B681B6923F040617B685A6B7B681B68A5
:104250000A431A6109E07B681B68DA681C4B13404B
:104260007A681268B9690B43D3607B681B6818468B
:10427000FFF7A1FE38617B681B681846FFF7AEFEAA
:10428000F8603B69002B40F08E80FB68002B40F00B
:104290008A807B681B680A4A93421BD17B681B7E1D
:1042A0009A037B6893F838305B001343BB6118E0D6
:1042B00000000024632D3E05002002400021024042
:1042C0000060025800230240006302580740F0FFDC
:1042D00003C0F0FF7B681B7E9A037B681B6B134354
:1042E000BB617B681B68DA68464B13407A681268CA
:1042F000B9690B43D3607B6893F84430012B37D105
:104300007B689B6A002B7B681B683F4A934216D1EF
:104310007B681B681A693D4B13407A68916C7A6818
:10432000D26C11437A68126D11437A68526D0A4358
:104330001A437B681B6842F001021A6120E07B6827
:104340001B681A69324B13407A68926C013A110467
:104350007A68D26C11437A68126D11437A68526D93
:104360000A431A437B681B6842F001021A6107E0A6
:104370007B681B681A697B681B6822F001021A615E
:104380007B681B681B6923F070417B681A6C7B6833
:104390001B680A431A617B681B681B4A934202D060
:1043A000786800F063FD7B681B69012B0CD17B688A
:1043B0001B681B6B23F00F017B68DB695A1E7B684F
:1043C0001B680A431A6307E07B681B681A6B7B68EB
:1043D0001B6822F00F021A637B681B6E23F0030335
:1043E00043F001027B681A6607E07B681B6E43F0AE
:1043F00010027B681A660123FB77FB7F184624377F
:10440000BD4690BDFCBFFFFF006002581FF800FCD6
:104410001EF800FC90B5B9B000AF78603960002399
:1044200087F8DF300023BB607B6893F84430012BB2
:104430003B68DB68A94A93427B6893F85C30012BA8
:1044400002D1022300F0FABC7B68012283F85C20D1
:104450007B681B681846FFF7AEFD0346002B40F053
:10446000DE847B681B689E4A934233D03B681B689E
:10447000C3F31303002B08D13B681B689B0E03F0AA
:104480001F03012202FA03F31DE03B681B68C7F813
:10449000C430D7F8C43093FAA3F3C7F8C030D7F8C4
:1044A000C030C7F8C830D7F8C830002B01D120235E
:1044B00004E0D7F8C830B3FA83F3DBB203F01F038C
:1044C000012202FA03F37A681268D1697A681268E5
:1044D0000B43D3617B6818683B6859683B681B686D
:1044E0001A46FFF76FFC7B681B681846FFF763FDF1
:1044F000C7F8D4007B681B681846FFF76FFDC7F844
:10450000D000D7F8D430002B40F07082D7F8D030EC
:10451000002B40F06B827B6818683B6819683B6829
:104520009B681A46FFF77AFC7B681B686C4A9342CB
:104530000DD13B685A697B681B68DB68DB0803F0B8
:1045400003035B0002FA03F3C7F8D83032E0654B8F
:104550001B6803F07043B3F1805F0BD13B685A696D
:104560007B681B68DB689B0803F007035B0002FAAB
:1045700003F31DE07B681B68DB6803F01003002B6E
:104580000BD13B685A697B681B68DB689B0803F0AA
:1045900007035B0002FA03F30AE03B685A697B6891
:1045A0001B68DB689B0803F004035B0002FA03F35B
:1045B000C7F8D8303B681B69042B48D07B68186863
:1045C0003B6819693B681A68D7F8D830FFF708FBD1
:1045D0007B681B68424A934219D17B6818683B6824
:1045E00019693B68DB691A46FFF7A0FB7B6818680E
:1045F0003B6819693B6893F82030012B02D14FF0DA
:10460000007300E000231A46FFF76EFBEEE17B68C3
:1046100018683B6819693B6893F82130012B02D177
:104620004FF0004300E000231A46FFF73BFB7B6896
:1046300018683B6819693B681B7E012B02D14FF457
:10464000006300E000231A46FFF712FBCEE17B680F
:104650001B68234A934240F081817B681B680021DC
:104660001846FFF7EFFA0346C3F31303002B0AD1F2
:104670007B681B6800211846FFF7E4FA03469B0E8F
:1046800003F01F021EE07B681B6800211846FFF73D
:10469000D9FA0346C7F8B830D7F8B83093FAA3F37D
:1046A000C7F8B430D7F8B430C7F8BC30D7F8BC304E
:1046B000002B01D1202304E0D7F8BC30B3FA83F3F8
:1046C000DBB21A463B681B68C3F31303002B0BD104
:1046D0003B681B689B0E03F01F031EE00000FF47B2
:1046E000006002580010005C3B681B68C7F8AC30E3
:1046F000D7F8AC3093FAA3F3C7F8A830D7F8A830AE
:10470000C7F8B030D7F8B030002B01D1202304E037
:10471000D7F8B030B3FA83F3DBB29A4206D17B68A4
:104720001B68002200211846FFF722FB7B681B68EC
:1047300001211846FFF786FA0346C3F31303002B43
:104740000AD17B681B6801211846FFF77BFA0346F4
:104750009B0E03F01F021EE07B681B6801211846B8
:10476000FFF770FA0346C7F8A030D7F8A03093FAE5
:10477000A3F3C7F89C30D7F89C30C7F8A430D7F81B
:10478000A430002B01D1202304E0D7F8A430B3FAE1
:1047900083F3DBB21A463B681B68C3F31303002B99
:1047A00005D13B681B689B0E03F01F0318E03B68B4
:1047B0001B68C7F89430D7F8943093FAA3F3C7F87E
:1047C0009030D7F89030C7F89830D7F89830002B51
:1047D00001D1202304E0D7F89830B3FA83F3DBB299
:1047E0009A4206D17B681B68002201211846FFF718
:1047F000BFFA7B681B6802211846FFF723FA0346BD
:10480000C3F31303002B0AD17B681B6802211846EF
:10481000FFF718FA03469B0E03F01F021EE07B68A9
:104820001B6802211846FFF70DFA0346C7F88830C7
:10483000D7F8883093FAA3F3C7F88430D7F88430D8
:10484000C7F88C30D7F88C30002B01D1202304E03E
:10485000D7F88C30B3FA83F3DBB21A463B681B6897
:10486000C3F31303002B05D13B681B689B0E03F0B9
:104870001F0314E03B681B68FB67FB6F93FAA3F30D
:10488000BB67BB6FC7F88030D7F88030002B01D1F1
:10489000202304E0D7F88030B3FA83F3DBB29A42E6
:1048A00006D17B681B68002202211846FFF760FAD8
:1048B0007B681B6803211846FFF7C4F90346C3F35E
:1048C0001303002B0AD17B681B6803211846FFF7EE
:1048D000B9F903469B0E03F01F0217E07B681B68C3
:1048E00003211846FFF7AEF903463B673B6F93FA87
:1048F000A3F3FB66FB6E7B677B6F002B01D120234C
:1049000003E07B6FB3FA83F3DBB21A463B681B68A4
:10491000C3F31303002B05D13B681B689B0E03F008
:104920001F0311E03B681B687B667B6E93FAA3F361
:104930003B663B6EBB66BB6E002B01D1202303E0C0
:10494000BB6EB3FA83F3DBB29A424FD17B681B682C
:10495000002203211846FFF70BFA47E07B681B682B
:104960001B6E03F0F8423B681B689B069A4207D116
:104970007B681B681A6E7B681B6822F000421A660F
:104980007B681B685B6E03F0F8423B681B689B0604
:104990009A4207D17B681B685A6E7B681B6822F0BD
:1049A00000425A667B681B689B6E03F0F8423B68C6
:1049B0001B689B069A4207D17B681B689A6E7B68CE
:1049C0001B6822F000429A667B681B68DB6E03F06E
:1049D000F8423B681B689B069A4207D17B681B68BC
:1049E000DA6E7B681B6822F00042DA667B681B681F
:1049F0001846FFF7CDFA0346002B40F019827B687A
:104A000018683B6819683B68DB681A46FFF732FA9A
:104A10003B68DB68A14A934240F02E817B681868AE
:104A20003B681B68C3F31303002B0BD13B681B6867
:104A30009B0E013303F01F03092B94BF01230023B6
:104A4000DBB219E03B681B68BB65BB6D93FAA3F34F
:104A50007B657B6DFB65FB6D002B01D1202303E0A3
:104A6000FB6DB3FA83F3DBB2013303F01F03092BB1
:104A700094BF01230023DBB2002B79D03B681B6875
:104A8000C3F31303002B07D13B681B689B0E013354
:104A90009B0603F0F84215E03B681B68FB64FB6C67
:104AA00093FAA3F3BB64BB6C3B653B6D002B01D158
:104AB000202303E03B6DB3FA83F3DBB201339B06A3
:104AC00003F0F8423B681B68C3F31303002B09D1C2
:104AD0003B681B689B0E013303F01F03012101FAA1
:104AE00003F317E03B681B683B643B6C93FAA3F34A
:104AF000FB63FB6B7B647B6C002B01D1202303E009
:104B00007B6CB3FA83F3DBB2013303F01F030121A3
:104B100001FA03F342EA03013B681B68C3F3130382
:104B2000002B0AD13B681B689B0E013303F01F0268
:104B300013465B0013441B0518E03B681B687B634E
:104B40007B6B93FAA3F33B633B6BBB63BB6B002BA9
:104B500001D1202303E0BB6BB3FA83F3DBB2013353
:104B600003F01F0213465B0013441B050B437EE05A
:104B70003B681B68C3F31303002B07D13B681B681A
:104B80009B0E01339B0603F0F84215E03B681B685F
:104B9000BB62BB6A93FAA3F37B627B6AFB62FB6A2C
:104BA000002B01D1202303E0FB6AB3FA83F3DBB2CD
:104BB00001339B0603F0F8423B681B68C3F3130301
:104BC000002B09D13B681B689B0E013303F01F03C8
:104BD000012101FA03F317E03B681B68FB61FB69E5
:104BE00093FAA3F3BB61BB693B623B6A002B01D123
:104BF000202303E03B6AB3FA83F3DBB2013303F013
:104C00001F03012101FA03F342EA03013B681B6819
:104C1000C3F31303002B0DD13B681B689B0E0133BC
:104C200003F01F0213465B0013441E3B1B0543F0B9
:104C300000731BE03B681B683B613B6993FAA3F37D
:104C4000FB60FB687B617B69002B01D1202303E0C3
:104C50007B69B3FA83F3DBB2013303F01F0213461F
:104C60005B0013441E3B1B0543F000730B433A6883
:104C700092681946FFF7D2F83B681B68002B80F258
:104C8000D7807B681B68064A934204D07B681B6808
:104C9000044A93420AD1044B09E000BF0000FF47D9
:104CA000002002400021024000230240654B1846CC
:104CB000FEF788FFC7F8CC007B681B68624A934206
:104CC00004D07B681B68614A93420ED15E48FFF7AF
:104CD0005FF904465D48FFF75BF903462343002B69
:104CE0000CBF01230023DBB208E05948FFF750F95D
:104CF0000346002B0CBF01230023DBB2002B00F086
:104D000084803B681B68534A934232D1D7F8CC3039
:104D100003F40003002B2CD17B681B684C4A9342A0
:104D200040F086807B681B68474A934204D07B68CA
:104D30001B68464A934201D1474A00E0414AD7F8EE
:104D4000CC3043F4000319461046FEF728FF434BCE
:104D50001B689B09424AA2FB03239B0901335B00AA
:104D6000BB6002E0BB68013BBB60BB68002BF9D1B4
:104D70005EE03B681B683B4A934220D1D7F8CC30B9
:104D800003F08073002B1AD17B681B68304A934272
:104D90004ED17B681B682C4A934204D07B681B6809
:104DA0002A4A934201D12C4A00E0264AD7F8CC3057
:104DB00043F0807319461046FEF7F1FE38E03B6879
:104DC0001B68294A934233D1D7F8CC3003F48003CF
:104DD000002B2DD17B681B681D4A934228D17B682C
:104DE0001B68194A934204D07B681B68174A934298
:104DF00001D1194A00E0134AD7F8CC3043F48003BC
:104E000019461046FEF7CBFE12E07B681B6E43F09E
:104E100020027B681A66012387F8DF3008E07B6890
:104E20001B6E43F020027B681A66012387F8DF308F
:104E30007B68002283F85C2097F8DF301846E4375F
:104E4000BD4690BD00630258002002400021024090
:104E500000600258000052C70023024000000024F6
:104E6000632D3E05000021C3000084CB80B584B0D3
:104E700000AF78607B681B686B4A934204D07B6804
:104E80001B686A4A934209D1694B9B6803F440331B
:104E9000002B14BF01230023DBB208E0654B9B68A5
:104EA00003F44033002B14BF01230023DBB2002B9B
:104EB0001CD004F041FFF8607B685B68B3F5403FAD
:104EC00010D0B3F5403F71D8B3F5803F02D0B3F5B1
:104ED000003F6BD17B685B681B0CFA68B2FBF3F395
:104EE000FB6066E0FB689B08FB6062E04FF400201B
:104EF00005F078FEF8607B685B68B3F5301F51D031
:104F0000B3F5301F54D8B3F5201F47D0B3F5201F99
:104F10004ED8B3F5101F3DD0B3F5101F48D8B3F5E8
:104F2000001F33D0B3F5001F42D8B3F5E01F29D0DE
:104F3000B3F5E01F3CD8B3F5C01F1AD0B3F5C01FBE
:104F400036D8B3F5A01F14D0B3F5A01F30D8B3F5F1
:104F5000801F0ED0B3F5801F2AD8B3F5402F08D09C
:104F6000B3F5402F24D8B3F5802F02D0B3F5002F2E
:104F70001ED17B685B689B0C5B00FA68B2FBF3F3A5
:104F8000FB6016E0FB681B09FB6012E0FB685B0935
:104F9000FB600EE0FB689B09FB600AE0FB68DB0935
:104FA000FB6006E0FB681B0AFB6002E000BF00E05C
:104FB00000BFFB685B08FB60FB681F4A934208D890
:104FC0007B681B689A687B681B6822F440729A6051
:104FD00025E0FB68194A93420AD87B681B689B68E6
:104FE00023F440727B681B6842F480729A6016E07A
:104FF000FB68134A93420AD87B681B689B6823F4BA
:1050000040727B681B6842F400729A6007E07B681C
:105010001B689A687B681B6842F440729A6000BF04
:105020001037BD4680BD00BF002002400021024075
:105030000023024000630258105E5F0020BCBE00E7
:1050400040787D0180B483B000AF78607B689B6856
:1050500003F00103012B01D1012300E000231846D6
:105060000C37BD465DF8047B704780B483B000AF59
:1050700078607B689B6803F00403042B01D1012353
:1050800000E0002318460C37BD465DF8047B7047EE
:1050900090B5A3B000AF78603960002387F88730FF
:1050A0007B6893F85C30012B01D10223C1E07B685F
:1050B000012283F85C200023FB6600233B677B68AA
:1050C0001B685E4A934202D15D4BFB6001E0002306
:1050D000FB60FB68002B0BD17B681B6E43F020024A
:1050E0007B681A667B68002283F85C200123A0E0BD
:1050F000FB681846FFF7B9FFC7F880007B681B689C
:105100001846FFF7B2FF0346002B40F08180D7F826
:105110008030002B7CD17B681B68484A934204D0C6
:105120007B681B68464A934201D1464B00E0464BE0
:10513000FB673B681B68002B39D0FB6F9B6823F42F
:1051400040423B685B681A43FB6F9A607B681B6850
:105150003A4A934204D07B681B68394A93420ED185
:105160003648FFF76FFF04463548FFF76BFF0346ED
:105170002343002B0CBF01230023DBB208E033489C
:10518000FFF760FF0346002B0CBF01230023DBB2B7
:10519000002B47D0FB6F9A682D4B13403A6811687B
:1051A0003A6892680A431A43FB6F9A603AE0FB6FD1
:1051B0009B6823F44042FB6F9A607B681B681F4A20
:1051C000934204D07B681B681D4A93420ED11B4852
:1051D000FFF738FF04461A48FFF734FF034623431E
:1051E000002B0CBF01230023DBB208E01748FFF7B8
:1051F00029FF0346002B0CBF01230023DBB2002B49
:1052000010D0FB6F9A68124B1340FA6F936009E05D
:105210007B681B6E43F020027B681A66012387F8C7
:10522000873000E000BF7B68002283F85C2097F89D
:10523000873018468C37BD4690BD00BF0020024025
:10524000002102400023024000630258006002581F
:10525000E0F0FFFF80B485B000AF78607B6803F0BA
:105260000703FB600B4BDB68BB60BA684FF6FF03BC
:105270001340BB60FB681A02BB681A43064B13431A
:10528000BB60044ABB68D36000BF1437BD465DF8FD
:10529000047B704700ED00E00000FA0580B400AF29
:1052A000044BDB681B0A03F007031846BD465DF894
:1052B000047B704700ED00E080B483B000AF03468C
:1052C000FB80B7F90630002B0BDBFB8803F01F02D5
:1052D0000749B7F906305B09012000FA02F241F8EC
:1052E000232000BF0C37BD465DF8047B704700BF2C
:1052F00000E100E080B483B000AF03463960FB807A
:10530000B7F90630002B0ADB3B68DAB20C49B7F973
:1053100006301201D2B20B4483F800230AE03B6846
:10532000DAB20849FB8803F00F03043B1201D2B242
:105330000B441A7600BF0C37BD465DF8047B7047FE
:1053400000E100E000ED00E080B489B000AFF8605B
:10535000B9607A60FB6803F00703FB61FB69C3F186
:105360000703042B28BF0423BB61FB690433062B0E
:1053700002D9FB69033B00E000237B614FF0FF3261
:10538000BB6902FA03F3DA43BB681A407B699A40AF
:105390004FF0FF317B6901FA03F3D9437B680B407F
:1053A000134318462437BD465DF8047B7047000060
:1053B00080B582B000AF78607B68013BB3F1807F3D
:1053C00001D301230FE00A4A7B68013B53600F21A0
:1053D0004FF0FF30FFF78EFF054B00229A60044B21
:1053E00007221A60002318460837BD4680BD00BF5B
:1053F00010E000E080B582B000AF78607868FFF719
:1054000029FF00BF0837BD4680BD80B586B000AF1C
:105410000346B9607A60FB81FFF740FF78617A68E4
:10542000B9687869FFF790FF0246B7F90E30114668
:105430001846FFF75FFF00BF1837BD4680BD80B537
:1054400082B000AF0346FB80B7F906301846FFF77D
:1054500033FF00BF0837BD4680BD80B582B000AFC6
:1054600078607868FFF7A4FF034618460837BD4602
:1054700080BD000080B586B000AF7860FEF738FBD5
:1054800038617B68002B01D1012312E37B681B6824
:10549000664A93424AD07B681B68654A934245D06E
:1054A0007B681B68634A934240D07B681B68624AF2
:1054B00093423BD07B681B68604A934236D07B683E
:1054C0001B685F4A934231D07B681B685D4A9342F8
:1054D0002CD07B681B685C4A934227D07B681B6892
:1054E0005A4A934222D07B681B68594A93421DD086
:1054F0007B681B68574A934218D07B681B68564AE2
:10550000934213D07B681B68544A93420ED07B6849
:105510001B68534A934209D07B681B68514A9342E7
:1055200004D07B681B68504A934201D1012300E0FC
:105530000023002B00F03C817B68022283F8352099
:105540007B68002283F834207B681B68374A9342CB
:105550004AD07B681B68364A934245D07B681B68FB
:10556000344A934240D07B681B68334A93423BD015
:105570007B681B68314A934236D07B681B68304A8F
:10558000934231D07B681B682E4A93422CD07B68B3
:105590001B682D4A934227D07B681B682B4A934295
:1055A00022D07B681B682A4A93421DD07B681B6807
:1055B000284A934218D07B681B68274A934213D02D
:1055C0007B681B68254A93420ED07B681B68244A7F
:1055D000934209D07B681B68224A934204D07B68BF
:1055E0001B68214A934208D17B681B681A687B6854
:1055F0001B6822F001021A6007E07B681B681A68CA
:105600007B681B6822F001021A602FE0FEF770FA37
:1056100002463B69D31A052B28D97B6820225A659C
:105620007B68032283F83520012342E21000024008
:105630002800024040000240580002407000024032
:1056400088000240A0000240B8000240100402405E
:105650002804024040040240580402407004024002
:1056600088040240A0040240B80402407B681B6822
:105670001B6803F00103002BC8D17B681B681B6803
:105680007B617A69834B13407B617B689A687B6896
:10569000DB681A437B681B691A437B685B691A43A2
:1056A0007B689B691A437B68DB691A437B681B6ACA
:1056B00013437A6913437B617B685B6A042B07D1D0
:1056C0007B68DA6A7B681B6B13437A6913437B61DF
:1056D0007B685B68282B03D97B685B682E2B1FD9FE
:1056E0007B685B683E2B03D97B685B68422B17D9CC
:1056F0007B685B68462B03D97B685B68482B0FD9B6
:105700007B685B684E2B03D97B685B68522B07D99B
:105710007B685B68732B05D97B685B68772B01D846
:10572000012300E00023002B03D07B6943F48013A6
:105730007B617B681B687A691A607B681B685B69A0
:105740007B617B6923F007037B617B685B6A7A6915
:1057500013437B617B685B6A042B17D17B689B6A70
:105760007A6913437B617B68DB6A002B0ED0786813
:1057700002F03AFB0346002B08D07B6840225A65B2
:105780007B68012283F83520012392E17B681B6846
:105790007A695A61786802F075FA0346BB607B68E3
:1057A000DB6D03F01F033F229A40BB689A60C8E09C
:1057B0007B681B68384A934222D07B681B68374A53
:1057C00093421DD07B681B68354A934218D07B6892
:1057D0001B68344A934213D07B681B68324A934259
:1057E0000ED07B681B68314A934209D07B681B68E6
:1057F0002F4A934204D07B681B682E4A934201D102
:10580000012300E00023002B00F092807B681B68DE
:10581000214A934221D07B681B68204A93421CD0C6
:105820007B681B681E4A934217D07B681B681D4A21
:10583000934212D07B681B681B4A93420DD07B6851
:105840001B681A4A934208D07B681B68184A934227
:1058500003D07B681B68174A93427B68022283F857
:1058600035207B68002283F834207B681B681B6826
:105870007B617A69104B13407B617B689B68402B8E
:105880001CD07B689B68802B02D14FF4804316E0CC
:10589000002314E03F8010FE085402581C540258A4
:1058A0003054025844540258585402586C54025808
:1058B00080540258945402580F00FEFF10237A6857
:1058C000D268D2081A437B681B69DB081A437B68DD
:1058D0005B69DB081A437B689B69DB081A437B68BA
:1058E000DB69DB081A437B681B6A1B0913437A696F
:1058F00013437B617B681B687A691A607B681B684D
:105900001A466E4B13446E4AA2FB03231B099A00EE
:105910007B68DA65786802F0B5F90346FB607B685E
:10592000DB6D03F01F0301229A40FB685A6008E018
:105930007B6840225A657B68032283F83520012367
:10594000B7E07B681B685F4A934272D07B681B6834
:105950005D4A93426DD07B681B685C4A934268D075
:105960007B681B685A4A934263D07B681B68594A1C
:1059700093425ED07B681B68574A934259D07B683C
:105980001B68564A934254D07B681B68544A934222
:105990004FD07B681B68534A93424AD07B681B6890
:1059A000514A934245D07B681B68504A934240D08D
:1059B0007B681B684E4A93423BD07B681B684D4A0C
:1059C000934236D07B681B684B4A934231D07B6848
:1059D0001B684A4A93422CD07B681B68484A934212
:1059E00027D07B681B68474A934222D07B681B689C
:1059F000454A93421DD07B681B68444A934218D0A5
:105A00007B681B68424A934213D07B681B68414AFB
:105A100093420ED07B681B683F4A934209D07B6853
:105A20001B683E4A934204D07B681B683C4A934201
:105A300001D1012300E00023002B32D0786802F06E
:105A40004FFA7B689B68802B02D17B6800225A60EA
:105A50007B685A687B681B6ED2B21A607B685B6E8B
:105A60007A68926E5A607B685B68002B10D07B6806
:105A70005B68082B0CD8786802F0CCFA7B68DB6E88
:105A800000221A607B681B6F7A68526F5A6008E0C8
:105A90007B680022DA667B6800221A677B68002236
:105AA0005A677B6800225A657B68012283F835209B
:105AB000002318461837BD4680BD00BFF8ABFDA7D0
:105AC000CDCCCCCC10000240280002404000024067
:105AD000580002407000024088000240A0000240CE
